:10200000A855001009380000000000000000000082
:102010000538000005380000053800000000000009
:10202000000000000000000000000000F13400008B
:10203000053800000000000091350000E135000087
:10204000053800000538000005380000053800009C
:10205000053800000538000005380000053800008C
:10206000053800000538000005380000053800007C
:10207000053800000538000005380000053800006C
:10208000053800000538000005380000053800005C
:10209000053800000538000005380000053800004C
:1020A000053800000538000005380000053800003C
:1020B000053800000538000005380000053800002C
:1020C0000538000007B50223009300230193074859
:1020D00007495A2200F0C8FB064B4FF0FF32DA6185
:1020E00040F6B83000F0DEFDF6E700BFF920000052
:1020F000EC3A000040C0092008B5044B4FF0FF3215
:102100009A614FF4FA6000F0CDFDF6E740C0092077
:10211000FEE7000013B501F0BDFB0A4B00241C6173
:10212000094B4FF0FF321A6002238DE8180007496F
:102130005A222346064800F097FB00F069FC20462F
:1021400002B010BD00C0024040C00920F23A0000B9
:10215000C520000070B51646026C0446856B3AB97E
:102160000668104656BB606800F074FF666025E0A4
:1021700066B9806801F0FAFBA268236C13446268B8
:10218000A360934215D32368A36012E0C06801F0F6
:10219000EDFB236CE2685B4221681A448A42E260EC
:1021A00002D262681344E360022E04D12DB1013DD6
:1021B00001E0304602E0002000E028460135A5633A
:1021C00070BD026C30B503466AB1C46845681444FA
:1021D000AC42C46024BF0468C460BDE83040084617
:1021E000D96801F0C3BB30BD38B5044601F098F999
:1021F00094F84550EDB26BB2002B0ADD636A43B12F
:1022000004F1240000F036FE08B100F0C3FE013DE9
:10221000F0E7FF2384F8453001F0A4F901F080F9DC
:1022200094F84450EDB26BB2002B0ADD236943B140
:1022300004F1100000F01EFE08B100F0ABFE013DFD
:10224000F0E7FF2384F84430BDE8384001F08AB954
:1022500038B50D46044640B94FF0500383F311885A
:10226000BFF36F8FBFF34F8FFEE701F059F9226C78
:10227000E06B23685043821A1918A360134461600D
:10228000E3600021FF23A16384F8443084F84530E3
:102290007DB92369ABB104F1100000F0EBFD80B112
:1022A0000A4B4FF080521A60BFF34F8FBFF36F8F0E
:1022B00007E004F1100000F03AFA04F1240000F005
:1022C00036FA01F04FF9012038BD00BF04ED00E0FF
:1022D00070B50D46064640B94FF0500383F31188A0
:1022E000BFF36F8FBFF34F8FFEE709B1484300E0A4
:1022F0000846483001F00AFA044658B10DB920608A
:1023000002E000F148030360E663256420460121F2
:10231000FFF79EFF204670BD2DE9FF410E4601925A
:102320001D46044640B94FF0500383F31188BFF3B4
:102330006F8FBFF34F8FFEE751B9036C43B14FF07E
:10234000500383F31188BFF36F8FBFF34F8FFEE706
:10235000022D0BD1E36B012B08D04FF0500383F318
:102360001188BFF36F8FBFF34F8FFEE700F018FEA9
:1023700010B9019B002B75D1002701F0D1F8A26B99
:10238000E36B9A4201D3022D17D1204631462A46EB
:10239000FFF7E0FE636A1BB104F1240000F06AFD60
:1023A00038B1364B4FF080521A60BFF34F8FBFF3F6
:1023B0006F8F01F0D7F801205DE0DDF80480B8F1FF
:1023C000000F02D101F0CEF84AE017B902A800F0E0
:1023D00091FD01F0C7F800F05BFB01F0A1F894F863
:1023E00044305BB2013304BF002384F8443094F8D6
:1023F00045305BB2013304BF002384F8453001F05F
:10240000B1F802A801A900F08BFD20BB01F088F80B
:10241000D4F83880E76B01F0A5F8B84515D104F180
:102420001000019900F0EEFC2046FFF7DDFE00F001
:10243000C7FB08B10127A0E7104B4FF080521A608C
:10244000BFF34F8FBFF36F8FF4E72046FFF7CCFE4B
:1024500000F0B6FBEEE72046FFF7C6FE00F0B0FB4B
:10246000002008E04FF0500383F31188BFF36F8F13
:10247000BFF34F8FFEE704B0BDE8F08104ED00E04C
:102480002DE9F8430F4616461D46044640B94FF065
:10249000500383F31188BFF36F8FBFF34F8FFEE7B5
:1024A00051B9036C43B14FF0500383F31188BFF36C
:1024B0006F8FBFF34F8FFEE7022D0BD1E36B012B24
:1024C00008D04FF0500383F31188BFF36F8FBFF331
:1024D0004F8FFEE701F0ECF8EFF311894FF0500356
:1024E00083F31188BFF36F8FBFF34F8FA26BE36B42
:1024F0009A4201D3022D1FD194F8458020465FFAFD
:1025000088F839462A46FFF725FE4FFA88F301334B
:102510000AD1636A73B104F1240000F0ABFC48B146
:1025200046B10120306008E008F101085FFA88F840
:1025300084F84580012000E0002089F31188BDE87F
:10254000F88300002DE9FF410D46019298460446AC
:1025500040B94FF0500383F31188BFF36F8FBFF37F
:102560004F8FFEE751B9036C43B14FF0500383F333
:102570001188BFF36F8FBFF34F8FFEE700F010FDA0
:1025800018B9019B002B40F08C80002700F0C8FF99
:10259000A66B3EB320462946E768FFF712FEB8F166
:1025A000000F0BD12368013EA66313B900F0A4FD10
:1025B0006060236993B104F1100004E0636AE7608E
:1025C00063B104F1240000F055FC38B13B4B4FF0EF
:1025D00080521A60BFF34F8FBFF36F8F00F0C2FFBE
:1025E000012067E0019E16B900F0BCFF57E017B963
:1025F00002A800F07FFC00F0B5FF00F049FA00F0FF
:102600008FFF94F844305BB2013304BF002384F899
:10261000443094F845305BB2013304BF002384F8A2
:10262000453000F09FFF02A801A900F079FC50BBE3
:1026300000F076FFA66B00F095FFF6B9236833B97A
:1026400000F06EFF606800F0BBFC00F08BFF04F14F
:102650002400019900F0D6FB2046FFF7C5FD00F0ED
:10266000AFFA08B1012791E7144B4FF080521A607E
:10267000BFF34F8FBFF36F8FF4E72046FFF7B4FD32
:1026800000F09EFAEEE72046FFF7AEFD00F098FA64
:1026900000F046FFA66B00F065FF002EE2D1304649
:1026A00008E04FF0500383F31188BFF36F8FBFF33F
:1026B0004F8FFEE704B0BDE8F08100BF04ED00E0FD
:1026C00030B50023064A52F8334002EBC3051CB96B
:1026D00042F83310686030BD0133082BF2D130BDB1
:1026E000644D001070B504460E46154600F018FF04
:1026F00094F844305BB2013304BF002384F84430C3
:1027000094F845305BB2013304BF002384F84530B0
:1027100000F028FFA36B2BB904F1240031462A46B0
:1027200000F08AFB2046BDE87040FFF75DBD00F178
:10273000080343604FF0FF32C360036100238260EF
:102740000360704700230361704743689A684B60D9
:102750008A609A6851609960036808610133036078
:10276000704730B50C68631C01D1036907E000F1C4
:1027700008035A681568A54201D81346F9E75A6854
:102780004A6091608B60596003680861013303609F
:1027900030BD4168826803698A6082685160596807
:1027A000814208BF5A60002202611868013818602F
:1027B00070470000064A13681968064B11B94FF0BC
:1027C000FF3203E01268D268D26852681A6070471C
:1027D0000C000010CC000010F8B51C4B1C4E1D68FE
:1027E000044630680F460430FFF7D3FF334648B93C
:1027F000184A106831680126C96A06FA01F120EA10
:1028000001011160621C07D137B119681248043107
:10281000BDE8F840FFF799BF2C441B68AC420C4A56
:102820005C6007D20D4B18681168BDE8F8400431B0
:10283000FFF797BF0A4B186811680431FFF791FF43
:10284000084B1A68944238BF1C60F8BDC8000010DD
:10285000B000001004010010F00000102C00001067
:102860000C000010CC0000102DE9F84F97008146B5
:1028700038468A4698460B9E00F048FF05460028D9
:1028800000F0A680502000F041FF044660B10563CF
:102890003A462846A52101F0DFF8236B043F3B446C
:1028A00023F0070B002506E0284600F08BFF8FE0A1
:1028B00001350A2D08D01AF80520631983F8342051
:1028C0001AF80530002BF3D10A9B0025042B34BFE6
:1028D0009A464FF0040A271D384684F83D50C4F844
:1028E0002CA0C4F840A06564FFF72CFF04F1180089
:1028F000FFF728FFCAF10503A5642461A3616462A0
:1029000084F84C5058464946424600F0DBFD2060B2
:1029100006B1346000F004FE2F4B304D1A68DFF82A
:10292000E88001321A602E6816BB2C601B68012BF0
:1029300027D108EB06001436FFF7F9FE642EF8D114
:10294000DFF8C890264E4846FFF7F1FE3046FFF705
:10295000EEFE2448FFF7EBFE2348FFF7E8FE23488E
:10296000FFF7E5FE224BC3F80090224B1E6008E003
:10297000214B1B682BB92B68DA6AE36A9A4298BF2D
:102980002C601E4B01261A6801321A60E36A1C4A49
:1029900006FA03F0116801431420116000FB038064
:1029A0003946FFF7D2FE00F0DDFD134B1B6863B123
:1029B0002B68DA6AE36A9A4207D2124B4FF08052D0
:1029C0001A60BFF34F8FBFF36F8F3046BDE8F88FAB
:1029D0004FF0FF30BDE8F88FD4000010B0000010B9
:1029E000D8000010B400001098000010F000001093
:1029F0000C0000102C00001010000010D00000107F
:102A00000401001004ED00E0340000101800001074
:102A100013B5194B002401930094184818495A2201
:102A20002346FFF721FF012818D100F0BBFB012846
:102A300014D14FF0500383F31188BFF36F8FBFF3AE
:102A40004F8F104B4FF0FF321A600F4B18600F4B37
:102A50001C6002B0BDE8104000F0E4BD013008D1B8
:102A60004FF0500383F31188BFF36F8FBFF34F8F85
:102A7000FEE702B010BD00BFEC000010F52C000016
:102A8000F83A0000CC00001010000010C800001040
:102A9000024B1A6801321A60704700BF1400001020
:102AA000014B1868704700BFC8000010394B2DE972
:102AB000F0471B68002B3CD1374B1E6801361E6067
:102AC000BEB9364B1A68126842B14FF0500383F317
:102AD0001188BFF36F8FBFF34F8FFEE7304A19683D
:102AE000106818602F4B11601A6801321A60FFF7E6
:102AF00061FE2D4F00243B68DFF8BC809E42DFF86A
:102B0000BC900BD3254B1A681268002A37D01B687B
:102B1000DB68DD686B689E4211D23B60D9F80030FB
:102B20001422DB6A534358F80330022B28BF0124D8
:102B300028E01E4B00241A6801321A6022E005F1D9
:102B4000040A5046FFF725FEAB6A1BB105F11800D9
:102B5000FFF71FFEEB6A01219940154A10680143F7
:102B60001420116000FB03805146FFF7EEFDD9F8F9
:102B70000030EA6ADB6A9A4228BF0124C2E74FF0BC
:102B8000FF33CAE70B4B1B68002B18BF01242046FC
:102B9000BDE8F08714000010C80000100C00001001
:102BA0002C00001008000010CC00001030000010B5
:102BB000040100100801001034000010B0000010E3
:102BC00070B52F4C236843B94FF0500383F311883D
:102BD000BFF36F8FBFF34F8FFEE700F0A1FC2368B8
:102BE000013B236024680CB1002445E0254B1B68A1
:102BF000002BF9D0244B1A680AB3DB680125DC6886
:102C0000261D04F11800FFF7C4FD3046FFF7C1FD93
:102C1000E36A1E4A05FA03F01168014311601C4A79
:102C2000142000FB03203146FFF78FFD194B1A6873
:102C3000E36AD26A934224BF174B1D60DAE70CB1F6
:102C4000FFF7B8FD154B1C681D4644B1FFF72EFF7A
:102C500010B1114B01221A60013CF7D12C600E4BD0
:102C60001B68002BC0D00E4B4FF080521A60BFF390
:102C70004F8FBFF36F8F012400F074FC204670BDAE
:102C800014000010D4000010B40000100401001063
:102C900034000010B00000100801001030000010D7
:102CA00004ED00E038B5054640B9104B4FF08052B6
:102CB0001A60BFF34F8FBFF36F8F38BD0C4B1C688A
:102CC00044B14FF0500383F31188BFF36F8FBFF30C
:102CD0004F8FFEE7FFF7DCFE28462146FFF77CFD1D
:102CE000FFF76EFF0028E0D038BD00BF04ED00E024
:102CF0001400001008B5174D2B68F3B1164CFFF700
:102D0000C7FE2668FFF75CFF002EF4D000F008FC39
:102D1000E368DC68201DFFF73CFD104B1A68013AA0
:102D20001A602B68013B2B6000F01CFC206B00F04C
:102D300049FD204600F046FDDDE7094B1B68012BED
:102D4000D9D9084B4FF080521A60BFF34F8FBFF3B1
:102D50006F8FD0E7AC00001098000010D400001076
:102D60003400001004ED00E0214B10B51A68214B2F
:102D700012B101221A6010BD1F4C1A6023681B6B30
:102D80001A68B2F1A53F0BD15A68B2F1A53F07D13D
:102D90009A68B2F1A53F03D1DB68B3F1A53F04D037
:102DA000206821683431FFF7B3F9144B1A68B2FA7E
:102DB00082F2D2B21423C2F11F025A4310498B1877
:102DC0008A5842B94FF0500383F31188BFF36F8FD5
:102DD000BFF34F8FFEE75A6803F1080152688A4239
:102DE0005A6004BF52685A605B68DB68236010BD9C
:102DF0001400001008010010B000001004010010C1
:102E00003400001010B50C4640B94FF0500383F366
:102E10001188BFF36F8FBFF34F8FFEE7054B196823
:102E20001831FFF79EFC20460121BDE81040FFF756
:102E3000D3BC00BFB000001038B50D46144640B9F1
:102E40004FF0500383F31188BFF36F8FBFF34F8FA1
:102E5000FEE7074B19681831FFF777FC002C0CBF11
:102E600028464FF0FF302146BDE83840FFF7B4BC9C
:102E7000B000001038B5C368DC6844B94FF05003A7
:102E800083F31188BFF36F8FBFF34F8FFEE704F119
:102E900018052846FFF77DFC104B1B687BB9251DE4
:102EA0002846FFF776FCE36A012199400C4A106836
:102EB000014311600B4A142000FB032000E00A4884
:102EC0002946FFF742FC094BE26A1B68DB6A9A421B
:102ED00083BF074B01201860002038BD140000108C
:102EE0000401001034000010B4000010B000001005
:102EF0000801001040B94FF0500383F31188BFF36D
:102F00006F8FBFF34F8FFEE7034B1B680360034BCC
:102F10001B684360704700BF08000010C800001025
:102F200038B50D46044640B94FF0500383F311887D
:102F3000BFF36F8FBFF34F8FFEE741B94FF05003E0
:102F400083F31188BFF36F8FBFF34F8FFEE700F05D
:102F5000E7FA0E4B1A682B68591C10D00C49086808
:102F600021688842616801D08A420AD2501A984288
:102F700007D28A1A13442B602046FFF7BBFF0024B8
:102F800000E0012400F0EEFA204638BDC800001031
:102F900008000010014B01221A6070470801001060
:102FA000054B1B6833B1054B1B68002B14BF002079
:102FB000022070470120704710000010140000101C
:102FC0002DE9F041044600283BD01F4DC36A2A6812
:102FD000D26A934235D28269002A04DB2A68D26A17
:102FE000C2F105028261194F4FF0140808FB037308
:102FF00062699A4222D1261D3046FFF7CAFB144B64
:1030000060B9E26A08FB02F857F8081031B90120EC
:1030100000FA02F2196821EA02021A602A68012104
:10302000D26A1868914001431420E262196000FBE3
:1030300002703146BDE8F041FFF787BB2B68DB6AC1
:10304000E362BDE8F08100BFB00000103400001062
:103050000401001070B5044608B9002070BD234B70
:103060001B68984208D04FF0500383F31188BFF3D8
:103070006F8FBFF34F8FFEE7436C43B94FF05003A0
:1030800083F31188BFF36F8FBFF34F8FFEE7C16AE1
:10309000026C013B91424364DFD0002BDDD1051D62
:1030A0002846FFF776FB1249124B58B9E26A142002
:1030B0005043085830B9012606FA02F2186820EA8F
:1030C00002021A60226CC2F10500E262A0610124D2
:1030D00004FA02F6186830431860142000FB02104E
:1030E0002946FFF732FB204670BD00BFB00000103C
:1030F0003400001004010010044B1A681AB11A6859
:10310000516C013151641868704700BFB000001065
:10311000F8B50F4C00F004FA2568ADB90D4F0E4E0E
:103120003846FFF704FB3046FFF701FB0B4B0A2044
:103130001F600B4B0C212A461E60FFF7C9F8206068
:1031400010B10849FFF7BCFABDE8F84000F00ABA30
:103150003C01001010010010240100100C010010AF
:1031600040010010FD3A000010B591420446416054
:10317000206105D88169D21A8A420CD2074B04E03B
:103180009A4201D2994206D2054B1868211DFFF7D9
:10319000E8FA002010BD012010BD00BF4001001062
:1031A0000C01001007B5FFF7B3FF0D4B1B6853B1BF
:1031B000022300930B4B0C4801930C49B4220023CB
:1031C000FFF752FB40B94FF0500383F31188BFF370
:1031D0006F8FBFF34F8FFEE703B05DF804FB00BFB6
:1031E0003C01001044010010BD320000023B000011
:1031F00030B5054685B040B94FF0500383F31188D0
:10320000BFF36F8FBFF34F8FFEE70E4C2068B8B14E
:1032100005290191029203950DDCFFF7C1FE0228FA
:1032200018BF0022206801A906BF089A0023134690
:10323000FFF772F804E01A4601A90023FFF720F90E
:1032400005B030BD3C010010F7B51A4E33681A685E
:103250004AB3DB68DC681D68271D3846FFF799FA1A
:10326000636A20469847E369012BEED1A3692B449A
:10327000AB4206D96360246130683946FFF771FAC2
:10328000E3E70021009120462A460B46FFF7B0FFF6
:103290000028DAD14FF0500383F31188BFF36F8F0A
:1032A000BFF34F8FFEE7044A11681360316003B02B
:1032B000F0BD00BF0C010010400100102DE9F043EB
:1032C00087B0DFF8AC91D9F800301D68D5F1010561
:1032D00038BF002515B9DB681E6800E00026FFF73F
:1032E000D7FBFFF7DDFB5E4C07462368A0469842FC
:1032F00003D2FFF7A9FF012300E000232760002B82
:1033000044D155BBBE422FD8FFF75AFCD9F8003044
:10331000DB68DC68201DFFF73CFAE369012B18D15C
:10332000A169204631443A463346FFF71DFF80B17C
:1033300000952046294632462B46FFF759FF40B9F3
:103340004FF0500383F31188BFF36F8FBFF34F8F9C
:10335000FEE7636A204698471EE0424B1B681D68E3
:10336000D5F1010538BF00253F4BF11B18682A46EF
:10337000FFF7B8F9FFF724FC70B93C4B4FF08052CF
:103380001A60BFF34F8FBFF36F8F05E0FFF718FC94
:1033900002E0039B002B09DA334B0022186803A9D3
:1033A0001346FFF7CFF80028F3D18AE7059C63693D
:1033B00013B1201DFFF7EDF9FFF772FBD8F80030CD
:1033C0000546984201D2FFF73FFF039BC8F8005023
:1033D000092BE1D8012202FA03F313F404762BD16E
:1033E00013F0C70F05D19B06D6D5204600F0EAF9A9
:1033F000D2E7049BA169204619442A46FFF7B4FE90
:103400000028C9D0636A20469847E369012BC3D1DD
:10341000A269049B00961A44204631463346FFF7C2
:10342000E7FE0028B8D14FF0500383F31188BFF3B3
:103430006F8FBFF34F8FFEE70499A16141B94FF041
:10344000500383F31188BFF36F8FBFF34F8FFEE7F5
:10345000204629442A462B46FFF786FE9CE700BFFC
:1034600038010010400100103C01001004ED00E0A4
:103470000C0100100A4B1B68013308D04FF05003B9
:1034800083F31188BFF36F8FBFF34F8FFEE74FF0C9
:10349000500383F31188BFF36F8FBFF34F8FFEE7A5
:1034A0000000001006480068006880F3088862B6D3
:1034B00061B6BFF34F8FBFF36F8F00DF00BF000017
:1034C00008ED00E04FF0807340F8043C054B21F01C
:1034D000010140F8081C40F80C3C40F8202C403812
:1034E000704700BF753400000000000000000000BD
:1034F000074B19680868B0E8F00F80F30988BFF33C
:103500006F8F4FF0000080F311884EF00D0E704762
:10351000B0000010AFF30080AFF30080AFF3008085
:103520004FF0500383F31188BFF36F8FBFF34F8FBA
:103530000A4A13680133012B13600DD1084B1B6835
:1035400013F0FF0F08D04FF0500383F31188BFF33F
:103550006F8FBFF34F8FFEE7704700BF0000001072
:1035600004ED00E0084A136843B94FF0500383F3B9
:103570001188BFF36F8FBFF34F8FFEE7013B1360DE
:103580000BB983F3118870470000001000000000A1
:10359000EFF30980BFF36F8F0D4B1A6820E9F00F2E
:1035A00010602DE908404FF0500080F31188FFF7BC
:1035B000DBFB4FF0000080F31188BDE8084019687C
:1035C0000868B0E8F00F80F30988BFF36F8F704789
:1035D000B0000010AFF30080AFF30080AFF30080C5
:1035E00008B54FF0500383F31188BFF36F8FBFF31B
:1035F0004F8FFFF75BFA18B1034B4FF080521A6000
:10360000002383F3118808BD04ED00E0034A044B56
:103610001A60072243F8042C704700BFFF760100B0
:1036200014E000E007B51E4B1A78D2B20192FF22D7
:103630001A701B78DBB28DF803309DF80320194B0C
:1036400002F050021A70184A072313609DF8031005
:10365000581E090607D59DF803305B00DBB28DF8D4
:1036600003300346F2E71B0203F4E0631360019AA0
:103670000B4BD2B21A70D3F8202942F47002C3F86F
:103680002029D3F8202942F07042C3F82029FFF7FF
:10369000BDFF064B00221A60FFF704FFFFF7EAFEAA
:1036A00000E400E0480100104C0100100000001090
:1036B000EFF305830F2B0ED9104A9B5C104A12784A
:1036C0009A4208D94FF0500383F31188BFF36F8FEC
:1036D000BFF34F8FFEE70B4B1A680B4B02F4E0620F
:1036E0001B689A4208D94FF0500383F31188BFF347
:1036F0006F8FBFF34F8FFEE7704700BFF0E300E02E
:10370000480100100CED00E04C01001070B50446BB
:10371000FFF7BEF92648016871B9264B264A23F007
:10372000070313605160254A44F6F83582E8220009
:1037300083E82400012303602CB1083463071CBF15
:1037400024F007040834621E44F6F6339A4229D85E
:10375000194A13685968A14203D31848834206D115
:1037600020E018680028F8D01A460346F2E71568EA
:103770001868091B102905F1080510600CD91A19E1
:1037800051605C6056680C4908684468B44201D2D4
:103790000146F9E710600A60094A5B681168C91AB6
:1037A000116000E00025FFF70BFA284670BD00BF4E
:1037B000604D001068010010580100105001001009
:1037C0000400001038B50446B8B1A0F10805FFF7B1
:1037D0005FF954F8041C094B1A685068884201D2FA
:1037E0001346F9E744F8082C1D60054B1A6811448C
:1037F0001960BDE83840FFF7E3B938BD5801001043
:1038000004000010FEE70000684620F007018D4626
:1038100019B500F03FF8174B174A1C46934218BFE2
:10382000002307D1154B164A1C46934218BF0023AC
:103830000AD107E01349D0188842F3D2E158D15099
:103840000433F7E7104B07E01049D0188842F9D24B
:10385000E158D1500433F7E70D4A934203D20022D6
:1038600043F8042BF8E7FEF755FCBDE81940854600
:10387000704700BF0C3B0000000000100C3B000034
:1038800000000010080000100800001000000010E8
:10389000A44D0010324B2022C3F8A0211946D1F8C4
:1038A000A0212F4B5006FAD50322C3F804212D4A3C
:1038B0000120C3F80C01AA21C3F884205522C3F8C3
:1038C0008C10C3F88C20C3F88000C3F88C10C3F8A8
:1038D0008C20234AD2F888305901FAD50323C2F844
:1038E0008030AA23C2F88C305523C2F88C30D2F82D
:1038F00088101B4B11F0407FF9D02322C3F8A4207D
:10390000AA2155220120C3F8AC10C3F8AC20C3F89B
:10391000A000C3F8AC10C3F8AC20114AD2F8A8300C
:103920005B05FAD50323C2F8A030AA23C2F8AC3055
:103930005523C2F8AC30D2F8A810094B11F4407FDF
:10394000F9D009490022C3F8A821C3F8AC21C3F873
:10395000C410C3F8C82143F23A021A60704700BF8E
:1039600000C00F4063000500DE872804844641EA5A
:10397000000313F0030349D1403A23D30B680360DB
:103980004B6843608B688360CB68C3600B690361DD
:103990004B6943618B698361CB69C3610B6A0362C5
:1039A0004B6A43628B6A8362CB6AC3620B6B0363AD
:1039B0004B6B43638B6B8363CB6BC3634030403192
:1039C000403ADBD230320BD30B6803604B68436064
:1039D0008B688360CB68C36010301031103AF3D22B
:1039E0000C3205D351F8043B40F8043B043AF9D2B9
:1039F000043208D0D2071CBF11F8013B00F8013B8C
:103A000001D30B8803806046704700BF082A13D398
:103A10008B07B1D010F00303AED0C3F10403D21A68
:103A2000DB071CBF11F8013B00F8013BA4D331F8C0
:103A3000023B20F8023B9FE7043AD9D3013A11F840
:103A4000013B00F8013BF9D20B7803704B784370CF
:103A50008B78837060467047F0B4840743D0541E5F
:103A6000002A3ED0CDB2034603E0621E002C38D0BF
:103A7000144603F8015B9A07F7D1032C2AD9CDB27B
:103A800045EA05250F2C45EA054515D9A4F110078F
:103A90003F0903F1100606EB07161A46156055603C
:103AA0009560D5601032B242F8D104F00F040137AE
:103AB000032C03EB07130DD91E462246043A032AB2
:103AC00046F8045BFAD8221F22F0030204321344A2
:103AD00004F003042CB1C9B21C4403F8011BA34237
:103AE000FBD1F0BC704714460346C6E75461736BC4
:103AF00032005461736B310049444C4500546D727F
:0A3B00005100546D722053766300EB
:083B0C00AAAAAAAAF84B0000C6
:0400000300002000D9
:00000001FF
